:020000040800F2
:1000000090290020C101000839240008471F00087A
:10001000ED230008AB020008F12F000800000000EB
:100020000000000000000000000000002D29000872
:10003000AF020008000000007D240008692B0008C2
:10004000DB010008DB010008DB010008DB01000820
:10005000DB010008DB010008DB010008DB01000810
:10006000DB010008DB010008DB010008DB01000800
:10007000DB010008DB010008DB010008DB010008F0
:10008000DB010008DB010008DB010008DB010008E0
:10009000DB010008DB010008DB010008DB010008D0
:1000A000DB010008DB010008DB010008DB010008C0
:1000B000DB010008DB010008DB010008DB010008B0
:1000C000DB010008DB010008DB010008DB010008A0
:1000D000DB010008DB010008DB010008DB01000890
:1000E000DB010008DB010008DB010008DB01000880
:1000F000DB010008DB010008DB010008DB01000870
:10010000DB010008DB010008DB010008DB0100085F
:10011000DB010008DB010008DB010008DB0100084F
:10012000DB010008DB010008DB010008DB0100083F
:10013000DB010008DB010008DB010008DB0100082F
:10014000DB010008DB010008DB010008DB0100081F
:10015000DB010008DB010008DB010008DB0100080F
:10016000DB010008DB010008DB010008DB010008FF
:10017000DB010008DB010008DB01000800000000D3
:10018000DB010008DB010008DB010008DB010008DF
:10019000DB010008DB010008DB010008DB010008CF
:1001A000DB010008DB010008DB010008DFF80CD0F0
:1001B00000F04AF8004800479953000890290020B1
:1001C0000648804706480047FEE7FEE7FEE7FEE7F1
:1001D000FEE7FEE7FEE7FEE7FEE7FEE70D2C000880
:1001E000AD0100082DE9F05F0546002092469B46D0
:1001F00088460646814640241BE02846414647463D
:10020000224600F042F853465A46C01A914110D394
:1002100011461846224600F029F82D1A67EB01080E
:100220004F4622460120002100F020F817EB00097C
:100230004E41201EA4F10104DFDC484631462A4627
:100240004346BDE8F09F0000064C074D06E0E0681D
:1002500040F0010394E8070098471034AC42F6D30D
:10026000FFF7A8FFF058000810590008202A04DB07
:10027000203A00FA02F1002070479140C2F12003B9
:1002800020FA03F3194390407047202A04DB203AF8
:1002900021FA02F00021704721FA02F3D040C2F1A6
:1002A0002002914008431946704700BFFEE770479F
:1002B00010B504464FF47A7104FB01F000F002F827
:1002C00010BD000070B5034600224FF0E0267569AE
:1002D0000E4E366803FB06F400BF4FF0E026B1690E
:1002E00010E04FF0E026B06988420BD0884202D27D
:1002F0000E1A324402E02E1A0E4432440146A24243
:1003000000D300E0EDE700BF70BD0000000000205A
:1003100030B587B00020069000250190062003909C
:10032000012004900220059000F06EFC002415E0EE
:10033000A01D039006A901A800F0C2FB054625B93F
:1003400008A0039903F0D6F806E00BA0039903F088
:10035000D1F8012007B030BD601CC4B2052CE7DB2A
:100360000020F7E7C9C8C7F82564B2C1B3FDB3C917
:10037000B9A60D0A00000000C9C8C7F82564B2C1BB
:10038000B3FDCAA7B0DC0D0A0000000010B50022C2
:1003900001B909E0012901D10A0205E0022901D1D0
:1003A0000A0201E04FF440720B2800D9001D114BE6
:1003B0001B6823F440730F4C236023461B681343D0
:1003C000236023461B6823F0F803236023461B6841
:1003D000F82494FAA4F4B4FA84F400FA04F444F08F
:1003E00002042343034C236023461B6843F48033F9
:1003F000236010BD103C02401C48006800F40070EF
:10040000B0B11A48006820F400701849086000BFB5
:100410000846006840F4006008600846006820F460
:100420000060086000BF0846006840F40070086083
:100430000E48006800F48060B0B10C48006820F4F9
:1004400080600A49086000BF0846006840F4805098
:1004500008600846006820F48050086000BF084625
:10046000006840F48060086070470000003C024073
:1004700010B502460020144B1B6823F44073124C45
:10048000236023461B6803432360032906D12346C8
:100490001B68E41323430C4C23600EE0012906D1B2
:1004A000094B1B6843F00403074C236005E0064B2F
:1004B0001B6843F40043044C2360034B1B6843F464
:1004C0008033014C236010BD103C0240074A126883
:1004D00022F44072054B1A601A4612681A601A46D6
:1004E000126842F001021A6001707047103C02402D
:1004F00010B50949096821F44071074C2160214673
:10050000096841F4407121602146096841F0010108
:1005100021600260436010BD103C0240084A12682E
:1005200022F44072064B1A601A46126842F4807236
:100530001A601A46126842F001021A600180704780
:10054000103C0240084A126822F44072064B1A60BE
:100550001A46126842F400721A601A46126842F093
:1005600001021A6001607047103C02402A4800688E
:10057000C0F3001040B12948C06940F0100027497D
:10058000C86110202449086023480068C0F3401067
:1005900040B12248C06940F008002049C8612020CD
:1005A0001D4908601C480068C0F3801040B11B481A
:1005B000C06940F004001949C8614020164908602C
:1005C00015480068C0F3C01040B11448C06940F03D
:1005D00002001249C86180200F4908600E48006877
:1005E000C0F3002048B10D48C06940F001000B493C
:1005F000C8614FF480700849086007480068C0F37C
:10060000400040B10548C06940F020000349C8617E
:1006100002200149086070470C3C02404400002061
:1006200070B50446002500201749C86100F01EFC83
:10063000054609E0601C38B124B100F017FC401BEE
:10064000A04201D9032070BD10480068C0F30040EB
:100650000028EFD10D48006800F0010010B1012022
:100660000A4908600948006800F4F970B0F5F97F9C
:1006700001D1012000E0002018B1FFF777FF012031
:10068000E1E70020DFE70000440000200C3C0240CE
:1006900010B501F05BFC10BD2DE9F8430546884616
:1006A00016461F4617B90020BDE8F883E819B0F5D3
:1006B000804F01D30020F7E703208DF80000280CBD
:1006C0008DF80100280A8DF80200E8B28DF80300C9
:1006D00000224FF48051184800F0C2FB002404E0CF
:1006E0001DF8040001F062FC641C042CF8D3B8F17E
:1006F000000F10D0FF2001F059FC88F80000002402
:1007000005E0FF2001F052FC06F8010B641C781E86
:10071000A042F6D809E0002405E0FF2001F046FCE5
:1007200006F8010B641CBC42F7D3012211030248F6
:1007300000F096FB0120B7E7000402400348006880
:1007400020F0020001490860704700003038024084
:100750002DE9F8430546884616461F4617B900207E
:10076000BDE8F883E819B0F5804F01D30020F7E722
:1007700000224FF480512B4800F072FB062001F05C
:1007800015FC01221103274800F06AFB02208DF8B6
:100790000000280C8DF80100280A8DF80200E8B24C
:1007A0008DF8030000224FF480511E4800F058FBE2
:1007B000002404E01DF8040001F0F8FB641C042C84
:1007C000F8D3B8F1000F0ED098F8000001F0EEFB5E
:1007D000002404E016F8010B01F0E8FB641C781E0D
:1007E000A042F7D808E0002404E016F8010B01F05D
:1007F000DDFB641CBC42F8D301221103094800F060
:100800002FFB00224FF48051064800F029FB042002
:1008100001F0CCFB01221103024800F021FB012072
:100820009EE700000004024002464FF4347042F894
:1008300021006FF0704302F1080040F821300020E1
:10084000106150619061704730B50246002300246A
:100850000868012816D013686FF30E03D1E901056B
:100860002843CD6828430D6928434D6928438D6985
:100870002843CD6928430D6A28434D6A2843034322
:10088000136019E013686FF30E03D1E907052843DD
:100890004D6A2843034354686FF30E04D1E9010500
:1008A0002843CD6828430D6928434D6928438D6945
:1008B0002843044313605460002030BD0246506951
:1008C00040EA4100506100207047F8B506460C46EA
:1008D0001546002000900027D4E900010843A168D4
:1008E000491E40EA4110E16840EA4120009000982A
:1008F000306100F0BBFA074609E0681C38B125B149
:1009000000F0B4FAC01BA84201D90320F8BDB069B9
:1009100000F020000028F0D100BFF7E770B50346D3
:10092000154600220024012D1FD09A6802F0704263
:100930000868401E4E68761E40EA06168868401E0B
:1009400046EA0026C868401E46EA0036088A401E6D
:1009500046EA0046888A401E46EA0056087E401E47
:1009600046EA006002439A6022E0DA6802F07042D0
:100970000868401E4E68761E40EA06168868401ECB
:1009800046EA0026088A401E46EA0046087E401EC7
:1009900046EA006002439C6804F07044C868401E48
:1009A0000603888A401E46EA00500443DA609C60D1
:1009B000002070BD10B5002401220BA10B4803F0EC
:1009C000A7FE04466CB10AA002F094FD4FF48052D9
:1009D000002105A003F0E4FB044614B908A004F0CC
:1009E0004FF800F033F810BD303A0000301100200D
:1009F000B4C5C5CCB8F1CABDBBAF0D0A000000003C
:100A0000313A410010B5002409A002F073FD4FF403
:100A1000805200210BA003F0C3FB044614B90AA0C6
:100A200004F02EF8C820FFF743FC00F00FF810BDCB
:100A3000B4C5C5CCD6D8D0C2B8F1CABDBBAF0D0ABB
:100A400000000000303A0000313A41007CB5002639
:100A50006A4601A90BA003F025FB064686B900985B
:100A60004069801E0099498900FB01F50098408982
:100A7000019900FB01F46208690803A002F03AFD45
:100A80007CBD0000303A00002531306C75204B6988
:100A90004220746F74616C20647269766520737093
:100AA0006163652E0D0A2531306C75204B6942203B
:100AB000617661696C61626C652E0D0A0000000050
:100AC0002DE9F04104460E460127002500BF2648C7
:100AD000007E012802D10220BDE8F08101202249D8
:100AE000087600BF4CF25030FFF79AFD0746002F02
:100AF00032D1401E30602068012810D1207C61680E
:100B0000FFF7B6FC4CF25030FFF78AFD0746174856
:100B1000006848F204018843144908601AE0A56897
:100B200012E0217C2846FFF731FC4CF25030FFF7F1
:100B300077FD07460D48006820F0FA000B49086071
:100B40000FB1356005E06D1CD4E902100844A842DD
:100B5000E7D800BFFFF750FC00BF0020024908762D
:100B600000BF3846B8E7000044000020103C0240B7
:100B70002DE9F04106460F4614461D464FF0010888
:100B800000BF1F48007E012802D10220BDE8F0818D
:100B900001201B49087600BF4CF25030FFF740FDA2
:100BA0008046B8F1000F23D126B9E1B23846FFF7ED
:100BB0008DFC12E0012E04D1A1B23846FFF7AEFC45
:100BC0000BE0022E04D121463846FFF7BBFC04E0BF
:100BD00022462B463846FFF78BFC4CF25030FFF78D
:100BE0001FFD80460748006820F0010005490860A5
:100BF00000BF00200249087600BF4046C6E700005B
:100C000044000020103C02400748006800F000400B
:100C100030B1064804490C3908600548086001E015
:100C2000012070470020FCE7103C0240230167458B
:100C3000AB89EFCDF8B502460B4600250024002015
:100C40000021E6E0012606FA01F51E6806EA050421
:100C5000AC4273D15E68022E02D05E68122E13D1B0
:100C6000CF0802F1200656F827004E07F70E0F2690
:100C7000BE40B0434F07FF0E1E69BE403043CF0851
:100C800002F1200646F8270010684F000326BE40F8
:100C9000B0431E7906F003064F00BE40304310609B
:100CA0005E68012E08D05E68022E05D05E68112EA7
:100CB00002D05E68122E13D190684F000326BE400A
:100CC000B0434F00DE68BE4030439060506801265C
:100CD0008E40B0431E79C6F300168E4030435060FC
:100CE000D0684F000326BE40B0434F009E68BE4010
:100CF0003043D0605E6806F08056B6F1805FA8D1C0
:100D000000BF00260096454E366846F48046434FA5
:100D10003E603E46366806F48046009600BF00BF3F
:100D20003F4E8F0856F827008E07370F0F26BE401C
:100D3000B0433C4EB24202D100262EE068E03A4E6B
:100D4000B24201D1012628E0384EB24201D102263A
:100D500023E0374EB24201D103261EE0354EB242A7
:100D600001D1042619E0344EB24201D1052614E027
:100D7000324EB24201D106260FE0314EB24201D1CD
:100D800007260AE02F4EB24201D1082605E02E4E7A
:100D9000B24201D1092600E00A268F073F0FBE406C
:100DA00030431F4E8F0846F82700284E3068A04376
:100DB0005E6806F48036B6F5803F00D12043234EAE
:100DC0003060361D3068A0435E6806F40036B6F524
:100DD000003F00D120431D4E361D3060361D306867
:100DE000A0435E6806F48016B6F5801F00D120434C
:100DF000164E08363060361D3068A0435E6806F433
:100E00000016B6F5001F00D12043104E0C3630609E
:100E1000491C1029FFF416AFF8BD00004438024009
:100E2000083801400000024000040240000802406F
:100E3000000C024000100240001402400018024062
:100E4000001C02400020024000240240003C0140FF
:100E5000024613690B400BB1012000E000207047EF
:100E60000AB1816101E00B048361704701480068A9
:100E7000704700001C00002010B50D48006840F4C9
:100E800000700B4908600846006840F48060086004
:100E90000846006840F480700860052000F060F8A3
:100EA0000F2000F007F800F017F8002010BD000038
:100EB000003C024070B5044600F010FA4FF47A711D
:100EC000B0FBF1F5284600F0ECFF00222146501E51
:100ED00000F007F8002070BD08B50020009000BFAA
:100EE00008BD2DE9F05F80460D461646002701F04B
:100EF000A9FA074639462A46334601F00700C0F1F1
:100F0000070ABAF1040F02D94FF0040A01E0C0F158
:100F1000070AD14600F1040ABAF1070F02D24FF0D6
:100F2000000A01E0A0F1030AD4464FF0010A0AFAD0
:100F300009FAAAF1010A0AEA020A0AFA0CFA4FF0BF
:100F4000010B0BFA0CFBABF1010B0BEA030B4AEAAA
:100F50000B042146404601F07DFABDE8F09F0000F9
:100F600000BF00F00702064B19684FF6FF03194057
:100F7000044B0B4343EA0221014B196000BF704749
:100F80000CED00E00000FA0538B5002400BF002099
:100F900000902348006840F08050214908600846CE
:100FA000006800F08050009000BF00BF01200104E5
:100FB00091FAA1F1B1FA81F11A4A42F82100FFF742
:100FC00055FF044607E0FFF751FF001BB0F57A7F9D
:100FD00001D9032038BD1448406800F48030B0F5D2
:100FE000803FF0D10120410491FAA1F1B1FA81F1E1
:100FF0000C4A42F82100FFF739FF044607E0FFF7EB
:1010000035FF001BB0F57A7F01D90320E2E70648DF
:10101000406800F40030B0F5003FF0D10020D9E77F
:101020004038024000000E420070004070B5044697
:101030000E460025A748006800F00F00B0426FD2AE
:10104000A4490E700846006800F00F00B04201D0BD
:10105000012070BD207800F00200022807D19E48D0
:10106000006820F0F000A16808439B4908602078E0
:1010700000F0010000283ED06068012807D19648A2
:1010800008380068C0F34040B8B90120E1E7606863
:10109000022802D06068032807D18F48083800680A
:1010A000C0F3406048B90120D3E78B480838006896
:1010B000C0F3400008B90120CBE78748006820F062
:1010C00003006168084384490860FFF7CFFE0546C6
:1010D0006068012810D108E0FFF7C8FE401B41F20C
:1010E0008831884201D90320B3E77B48006800F0CB
:1010F0000C000428F0D1CDE06068022811D108E08E
:10110000FFF7B4FE401B41F28831884201D9032029
:101110009FE77148006800F00C000828F0D1B9E0A2
:1011200024E06068032810D108E0FFF79FFE401B11
:1011300041F28831884201D903208AE76648006875
:1011400000F00C000328F0D1A4E008E0FFF78EFEC9
:10115000401B41F28831884201D9032079E75E487B
:10116000006800F00C000028F0D193E0207800F037
:101170000200022807D15848006820F0F000A1685A
:10118000084355490860207800F00100002877D016
:101190006068012807D1504808380068C0F3404013
:1011A000B8B9012055E76068022802D060680328BA
:1011B00007D1494808380068C0F3406048B90120A9
:1011C00047E7454808380068C0F3400008B90120E7
:1011D0003FE74148006820F00300616808433E494A
:1011E0000860FFF743FE05466068012810D108E05B
:1011F000FFF73CFE401B41F28831884201D90320B1
:1012000027E73548006800F00C000428F0D137E0EB
:101210006068022810D108E0FFF728FE401B41F269
:101220008831884201D9032013E72B48006800F079
:101230000C000828F0D123E06068032810D108E0F2
:10124000FFF714FE401B41F28831884201D9032088
:10125000FFE62148006800F00C000328F0D10FE001
:1012600008E0FFF703FE401B41F28831884201D9B4
:101270000320EEE61848006800F00C000028F0D1CA
:1012800014490E700846006800F00F00B04201D00B
:101290000120DEE6207800F00400042807D10E4883
:1012A000006820F4E050E16808430B4908602078AA
:1012B00000F00800082808D10748006820F46040C2
:1012C000216940EAC100044908600F20FFF7F2FDE0
:1012D0000020BEE6003C02400838024010B500F095
:1012E00045F80949096801F0F001F02292FAA2F2EA
:1012F000B2FA82F2D140054A515CC8400449086004
:101300000846006810BD0000083802409A580008DE
:101310000800002010B5FFF7E1FF0749096801F454
:10132000E0514FF4E05292FAA2F2B2FA82F2D140C6
:10133000024A515CC84010BD083802409A58000863
:1013400010B5FFF7CBFF0749096801F460414FF47E
:10135000604292FAA2F2B2FA82F2D140024A515CA1
:10136000C84010BD083802409A58000870B50021E6
:10137000002200230020274C246804F00C0424B130
:10138000042C04D0082C41D103E0234840E023483A
:101390003EE0204C241F246804F03F011D4C241F14
:1013A000246804F4800484B11C4CB4FBF1F5194C9E
:1013B000241F246847F6C076344096FAA6F6B6FA9B
:1013C00086F6F44005FB04F20FE0134CB4FBF1F594
:1013D000104C241F246847F6C076344096FAA6F6CF
:1013E000B6FA86F6F44005FB04F20A4C241F246882
:1013F00004F440344FF4403595FAA5F5B5FA85F577
:10140000EC40641C6300B2FBF3F001E0024800BF53
:1014100000BF70BD083802400024F40040787D0110
:1014200038B504460025207800F00100002866D079
:10143000F748006800F00C0004280DD0F44800685C
:1014400000F00C00082813D1F148001F006800F4D8
:101450008000B0F5800F0BD1ED4808380068C0F36C
:10146000404000284BD06068002848D1012038BD9A
:101470000020E749891F0870FFF7F8FC054608E0DF
:10148000FFF7F4FC401B41F28831884201D9032068
:10149000EDE7DF4808380068C0F340400028EFD18E
:1014A0002079DB49891F08706068A0B1FFF7DEFC76
:1014B000054608E0FFF7DAFC401B41F2883188421C
:1014C00001D90320D3E7D24808380068C0F3404070
:1014D0000028EFD013E0FFF7C9FC054608E0FFF74E
:1014E000C5FC401B41F28831884201D90320BEE788
:1014F000C74808380068C0F340400028EFD1207882
:1015000000F00200022869D1C148006800F00C0018
:1015100058B1BF48006800F00C00082821D1BC4831
:10152000001F006800F48000D8B9B9480838006886
:10153000C0F3400020B1E068012801D0012096E707
:10154000B3480838006820F0F800F82292FAA2F2B6
:10155000B2FA82F2216991400843AD490839086026
:101560003CE0E06828B30120AA490860FFF77EFC50
:10157000054606E0FFF77AFC401B642801D90320EA
:1015800075E7A34808380068C0F340000028F1D090
:101590009F480838006820F0F800F82292FAA2F27A
:1015A000B2FA82F2216991400843994908390860EA
:1015B00014E0002097490860FFF758FC054606E054
:1015C000FFF754FC401B642801D903204FE79048E3
:1015D00008380068C0F340000028F1D1207800F0FE
:1015E000080008282CD16069A8B101208A49086048
:1015F000FFF73CFC054606E0FFF738FC401B64287B
:1016000001D9032033E782486C300068C0F3400002
:101610000028F1D014E000207F490860FFF726FC85
:10162000054606E0FFF722FC401B642801D9032091
:101630001DE777486C300068C0F340000028F1D106
:10164000207800F0040004286FD100BF0020009033
:101650006F483830006840F080506D49383108607C
:101660000846006800F08050009000BF00BF6B4843
:10167000006840F4807069490860FFF7F7FB054691
:1016800006E0FFF7F3FB401B642801D90320EEE6D8
:101690006248006800F480700028F2D000205C49A5
:1016A00068310870FFF7E2FB054608E0FFF7DEFB54
:1016B000401B41F28831884201D90320D7E65448C3
:1016C00068300068C0F340000028EFD1207A50490C
:1016D00068310870A068A0B1FFF7C8FB054608E0B4
:1016E000FFF7C4FB401B41F28831884201D9032037
:1016F000BDE6474868300068C0F340000028EFD0DE
:1017000013E0FFF7B3FB054608E0FFF7AFFB401B14
:1017100041F28831884201D90320A8E63C4868306C
:101720000068C0F340000028EFD1A069F0B338484A
:10173000006800F00C00082872D0A069022850D17F
:10174000002034490866FFF791FB054606E0FFF7E5
:101750008DFB401B642801D9032088E62C480838FB
:101760000068C0F340600028F1D1D4E907010843C4
:1017700047F6C07292FAA2F2B2FA82F2616A91401E
:1017800008430122A16AC2EB51014FF4403292FAA0
:10179000A2F2B2FA82F2914008434FF0706292FADC
:1017A000A2F2B2FA82F2E16A914000E03AE0084324
:1017B0001749091F0860012016490866FFF756FB04
:1017C000054606E0FFF752FB401B642801D90320C1
:1017D0004DE60F4808380068C0F340600028F1D09B
:1017E00020E000200B490866FFF740FB054606E0B5
:1017F000FFF73CFB401B642801D9032037E604486F
:1018000008380068C0F340600028F1D10AE007E022
:101810000838024000004742800E474200700040F6
:10182000012024E6002022E610B50446204600F000
:101830002CF8D4E90001FEF7F7FF002084F82C0013
:1018400000BF84F82D0000BF10BD70B504460D46E2
:101850000CB9012070BD94F82C0028B9002084F840
:101860002D00204600F012F8022084F82C00211DE3
:101870002068FEF7E9FF2946D4E90002FFF74EF899
:10188000012084F82C000020E4E7704710B586B0F2
:10189000044600BF002000904348006840F001006B
:1018A000414908600846006800F00100009000BF50
:1018B00000BF00BF002000903B480838006840F09F
:1018C00004003949083908600846006800F004003F
:1018D000009000BF00BF00BF0020009008460068D5
:1018E00040F0080008600846006800F0080000901A
:1018F00000BF00BF00BF002000900846006840F015
:10190000100008600846006800F01000009000BF5A
:1019100000BF00BF002000900846006840F0200093
:1019200008600846006800F02000009000BF00BF7B
:1019300000BF002000900846006840F040000860AA
:101940000846006800F04000009000BF00BF0D2076
:1019500001900220029001200390032004900C20AB
:10196000059001A91148FFF765F94CF20370019049
:1019700001A90F48FFF75EF94FF68370019001A9A6
:101980000C48FFF757F94FF63F00019001A90A48AC
:10199000FFF750F948F23710019001A90748FFF707
:1019A00049F906B010BD0000383802400008024076
:1019B000000C0240001002400014024000180240D7
:1019C00070B504460D4694F82C00022800D170BD75
:1019D000022084F82C0029462068FEF76FFF0120C2
:1019E00084F82C000020F2E770B504460D46164638
:1019F00094F82C00022800D170BD022084F82C003D
:101A0000324629462068FEF760FF2868022803D185
:101A1000052084F82C0002E0012084F82C0000202E
:101A2000EAE710B504460CB9012010BD2068006833
:101A300020F0400021680860204600F04EF80020A9
:101A4000606584F8510000BF84F8500000BF00BFFB
:101A5000EBE710B504460CB9012010BD94F8510015
:101A600028B9002084F85000204600F037F8022002
:101A700084F851002068006820F040002168086068
:101A8000D4E901010843E168084321690843616919
:101A90000843218B01F400710843E1690843216A7E
:101AA0000843A16A0843216808600421A06901EA8B
:101AB0001040616A0843216848602168E06A086153
:101AC0002068C06920F400602168C861002060655A
:101AD000012084F851000020BFE7704710B586B0A0
:101AE000044600BF002000901748006840F0100036
:101AF000154908600846006800F01000009000BF1B
:101B000000BF00BF002000900F481430006840F470
:101B100000500D49143108600846006800F4005078
:101B2000009000BF00BF64200190022002900120BD
:101B30000390022004900520059001A90348FFF7B7
:101B400079F806B010BD00003038024000100240A5
:101B50002DE9F84F04460E4617461D46DDF828903D
:101B60004FF00008C24694F85180B8F1010F02D03E
:101B7000B8F1220F76D10EB107B115B90120BDE839
:101B8000F88F00BF94F85000012801D10220F6E739
:101B9000012084F8500000BF94F85100012802D1C0
:101BA000322084F8510000206065A763A587E5878F
:101BB0002663A586E586A064E064A06AB0F5005FB0
:101BC0000DD100BF2068006820F400502168086033
:101BD0002068006840F400502168086000BF206859
:101BE000006800F04000402805D02068006840F000
:101BF000400021680860E068B0F5006F75D160684A
:101C000030B16068B0F5827F0CD1E08E012809D137
:101C1000206B00882168C860206B801C2063E08EE8
:101C2000401EE086E08EF0B9A06AB0F5005F05D1F5
:101C30002068006840F48050216808604B4600220C
:101C40000121204600F0E8FD08B1032097E7206855
:101C5000C068A16B0880A06B801CA063E08F401E51
:101C6000E087C7E01BE131E04B460022022120461D
:101C700000F0D2FD08B1032081E7206B00882168C5
:101C8000C860206B801C2063E08E401EE086E08EE2
:101C900048B9A06AB0F5005F05D12068006840F43B
:101CA0008050216808604B4600220121204600F048
:101CB000B3FD08B1032062E72068C068A16B08800B
:101CC000A06B801CA063E08F401EE087E08E0028A0
:101CD000CADC60680028C4D14B460022012120469E
:101CE00000F09AFD10B1032049E70AE02068C068BF
:101CF000A16B0880A06B801CA063E08F401EE08772
:101D000078E0606830B16068B0F5827F0BD1E08E1A
:101D1000012808D1216B481C206308782168C8601D
:101D2000E08E401EE086E08ED0B9A06AB0F5005F7C
:101D300005D12068006840F48050216808604B4657
:101D400000220121204600F067FD08B1032016E7BC
:101D50002068C068A16B0870E08F401EE08749E0F2
:101D600030E04B4600220221204600F055FD08B12C
:101D7000032004E7216B481C206308782168C860B1
:101D8000E08E401EE086E08E48B9A06AB0F5005FA4
:101D900005D12068006840F48050216808604B46F7
:101DA00000220121204600F037FD08B10320E6E6BD
:101DB0002068C068C1B2A26B501CA0631170E08F94
:101DC000401EE087E08E0028CBDC606890B94B466F
:101DD00000220121204600F01FFD08B10320CEE6BD
:101DE0002068C068C1B2A26B501CA0631170E08F64
:101DF000401EE087A06AB0F5005F12D14B4600227A
:101E00000121204600F008FD28B1606D40F002007D
:101E100060650320B3E62068C06880B20090BDF81A
:101E200000004B4601228021204600F0F5FC28B13D
:101E3000606D40F0200060650320A0E6012084F87A
:101E4000510020688068C0F3001AA06AB0F5005FF6
:101E50001FD1BAF1000F1CD0606D40F00200606528
:101E6000A06AB0F5005F0DD100BF2068006820F4C3
:101E70000050216808602068006840F40050216824
:101E8000086000BF00BF002084F8500000BF0120A0
:101E900075E600BF002084F8500000BF6FE6022006
:101EA0006DE670B504462546681EB0F1807F01D30B
:101EB00001200FE0681E4FF0E02148610F214FF034
:101EC000FF3000F0C7FA00204FF0E02188610720C2
:101ED0000861002070BD10B504460CB9012010BD8A
:101EE000A06900B100E000BF94F8390028B90020D3
:101EF00084F83800204600F025F8022084F83900E4
:101F00002068C06820F400502168C860204600F0B6
:101F1000B7FE2068006920F49040216808612068BD
:101F2000406920F02A00216848612068C06840F4B8
:101F300000502168C8600020E063012084F8390067
:101F40000020CCE7704700BFFEE7000000B587B077
:101F500000BF002001901348006840F002001149C2
:101F600008600846006800F00200019000BF00BF52
:101F70004FF430400290012003900490032005901C
:101F800002A90948FEF756FE4FF480400290002057
:101F900003900120049002A90348FEF74BFE07B00E
:101FA00000BD0000303802400004024070B5044615
:101FB000002500BF25E004F0800028B10122D103F4
:101FC0001248FEF74DFF05E000224FF400410F4894
:101FD000FEF746FF6006040E012251030B48FEF790
:101FE0003FFF4FF480410948FEF732FF08B144F04B
:101FF000010400224FF400510448FEF731FF681C31
:10200000C5B2082DD7DB204670BD00000004024099
:1020100010B5002409E000F087FA18B16420FEF73B
:1020200047F900E003E0601CC4B20A2CF3DB00BFF8
:1020300000F0DEF910BD00001CB5334800785528CB
:1020400006D032A001F056FA344800F087F831E0AB
:102050002D484078082806D131A001F04BFA2F48CE
:1020600000F07CF826E02848407801281CD12FA0F9
:1020700001F040FA314800F035FF70B908200090B7
:1020800001236A4600210220FEF762FB00F04EFFAA
:1020900010B9224800F062F80CE029A001F02AFAF9
:1020A0001E4800F05BF805E000F0EAF810B91B48A4
:1020B00000F054F800200190012301AA00211846E5
:1020C000FEF746FB4FF4FA70FEF7F2F800BF00BFD0
:1020D00000BF00BF00BFBFF34F8F00BF00BF00BFF6
:1020E0001C48006800F4E0601B490843001D1949C2
:1020F000086000BF00BF00BFBFF34F8F00BF00BF2D
:1021000000BF00BF00BFFDE729000020B5DAD2BB49
:10211000B4CEC9CFB5E70D0A0000000000000408E6
:10212000D4CBD0D0D5FDB3A30D0A0000B3CCD0F2F0
:10213000D3D0B8FCD0C20D0A00000000040000C0DB
:10214000B3CCD0F2D3D0B4ED2CD6B1BDD3CCF8D72C
:10215000AA0D0A000CED00E00000FA0510B50446D7
:10216000206810490840B0F1005F05D020680E4992
:102170000840B0F1805F0FD160680C4908602068AA
:1021800080F3088800BF012080F3108800BF00F0B2
:1021900063FC064800688047216805A001F0AAF9A1
:1021A000206810BD0000FE2F0000FE1F3000002040
:1021B000CCF8D7AACAA7B0DC2CCCF8D7AAB6D1D510
:1021C000BB3A3078253038580D0A000000B587B08A
:1021D00000BF002001901248006840F00200104942
:1021E00008600846006800F00200019000BF00BFD0
:1021F000012003900490002005900120029002A984
:102200000848FEF717FD012211460648FEF728FE92
:1022100000200549086001200449087007B000BD8E
:10222000303802400004024020000020240000203A
:1022300010B51048007801281BD10F480068401CD9
:102240000D49086008460068642812D901210B482E
:10225000FEF7FEFD28B1002201210848FEF700FE2E
:1022600004E0012211460548FEF7FAFD002002496C
:10227000086010BD2400002020000020000402405F
:102280002DE9F8430027002415E0012233480168B6
:10229000334802F06BFA05461DB1314801F0EFFEFC
:1022A00000E00AE0022C05D12EA001F023F9012064
:1022B000BDE8F883641C032CE7D300BF00240BE0C7
:1022C000FEF726F800B909E0022C04D129A001F09C
:1022D00011F90220ECE7641C032CF1D300BF204865
:1022E000D0F80C80264E30E06B464FF480522549E2
:1022F0001B4802F0EFFA054605BB22493046009A1A
:1023000001F080F8054625B11FA001F0F3F8032085
:10231000CEE7314620A0009A01F0ECF8009807447F
:102320000098B0F5805F06D2474504D220A001F0A6
:10233000E1F80420BCE7474505D309E023A001F0FC
:10234000D9F80520B4E706F5805624488642CBD359
:1023500000BF23A001F0CEF80020A9E73400002040
:1023600060130020B4F2BFAACEC4BCFECAA7B0DC82
:102370000D0A0000B2C1B3FDCAA7B0DC0D0A00000F
:10238000000004088C150020D0B4B3CCD0F2B3F612
:10239000B4ED0D0A00000000D0B4B5D8D6B75F3058
:1023A00078253038582C73697A653A25640D0A000F
:1023B000D0B4B3CCD0F2B3F6B4ED2C7265616C4CF2
:1023C000656ED3D0CECACCE20D0A0000B6C1CEC431
:1023D000BCFEB3F6B4ED0D0A00000000FFFF0C08D0
:1023E000BBD8CDCBB3C9B9A60D0A000000BFFEE72C
:1023F00038B501236A4600210320FEF74DF9044653
:10240000012C0FD19DF80000401CC0B200900123A8
:102410006A4600210320FEF79BF99DF8001002A0F8
:1024200001F068F838BD0000BFAABBFAB4CECAFDFF
:102430003A202564200D0A00704710B50520FEF7EC
:102440008FFD10BD02480068C0F3022070470000F5
:102450000CED00E010B5002807DA0A07140E054A53
:1024600000F00F031B1FD45403E00A07130E024AA7
:10247000135410BD18ED00E000E400E070470000C8
:10248000F8B504460B462648844202D325488442C8
:1024900001D90020F8BDA018224FB84201D9384612
:1024A000021B02F00305561B002111E0605800904A
:1024B0009DF8000058549DF80170481C1F549DF869
:1024C0000270881C1F549DF80370C81C1F54091DFE
:1024D000B142EBD3012D05D1605800909DF800006A
:1024E00058541AE0022D09D1605800909DF8000060
:1024F00058549DF80170481C1F540EE0032D0CD158
:10250000605800909DF8000058549DF80170481CD8
:102510001F549DF80270881C1F5490B2BAE7000047
:1025200000000408FFFF0C0838B503236A460021A9
:102530000120FEF7B1F83220FDF7BAFE03236A4608
:1025400000210120FEF7A8F80446012C1DD19DF8BA
:102550000000104908709DF8010048709DF80200C5
:10256000C8700DA000F0C6FF0A4801780FA000F067
:10257000C1FF0848417812A000F0BCFF0548C178AF
:1025800015A000F0B7FF002038BD17A000F0B2FF83
:102590000120F9E729000020B6C1C8A1B3CCD0F2D0
:1025A000D7B4CCACB3C9B9A6A3BA0000666972733C
:1025B00074506F7765723A30782530325820200099
:1025C0006D426F72616453746174653A307825307E
:1025D0003258202000000000626F6F74436F756EE8
:1025E000743A25640D0A0000B6C1C8A1B3CCD0F27C
:1025F000D7B4CCACB3F6B4ED210D0A0010B5134836
:10260000FFF712F91248006820F001001049086035
:102610000F480838006820F004000D4908390860A8
:102620000846006820F0080008600846006820F0AE
:10263000100008600846006820F020000860084686
:10264000006820F04000086010BD0000BC100020B1
:102650003838024000B587B0164817490860002096
:1026600048600121144881600821C1601021016186
:10267000402141614FF4C07181610021C1614FF47B
:1026800000610162490041624900816202200090BC
:1026900008200190062002900390022004900590EB
:1026A000069069460448FFF7D0F8034800F006F8A2
:1026B00007B000BD400100A0BC10002070B5054669
:1026C0000024002301221146184600F021F84FF49F
:1026D000FA70FDF7F7FD002301220221184600F0F1
:1026E00017F8002308220321184600F011F84FF4D0
:1026F0000C74234601220421002000F009F840F266
:10270000AB210248FFF75CF970BD0000BC1000204F
:102710002DE9FF4104460D4616461F464FF00008BE
:1027200014B94FF0100803E0012C01D14FF0080854
:102730000095CDF80480029603974FF480526946C5
:102740000448FFF751F918B9002004B0BDE8F08142
:102750000120FAE7BC10002010B5134813490860A7
:102760004FF482704860002110488160C1600221EE
:10277000016101214161490281613821C16100216A
:102780000162416281620721C162FFF762F9074875
:102790000068006840F04000044909680860FF20B4
:1027A00000F006F810BD0000003401406400002075
:1027B00001B582B04FF47A70012301AA02A90090FA
:1027C0000248FFF7C5F99DF804000EBD6400002023
:1027D00010490968096821F040010E4A1268116029
:1027E0000C49096809684FF6C7721140094A126816
:1027F00011600849096809680143064A12681160B6
:1028000004490968096841F04001024A12681160F0
:1028100070470000640000202DE9F04104460E4698
:1028200017461D464FF00008FEF720FB8046002F9C
:102830003ED132E0681C78B32DB1FEF717FBA0EB58
:102840000800A84229D92068406820F0E0002168EB
:1028500048602068006820F0400021680860A06A95
:10286000B0F5005F0DD100BF2068006820F4005073
:10287000216808602068006840F400502168086002
:1028800000BF012084F8510000BF002084F85000F0
:1028900000BF0320BDE8F081FFE72068806830407A
:1028A000B04201D1012000E000200028C2D03BE06E
:1028B00030E0681C70B32DB1FEF7D8FAA0EB080029
:1028C000A84227D92068406820F0E00021684860CD
:1028D0002068006820F0400021680860A06AB0F518
:1028E000005F0DD100BF2068006820F4005021680F
:1028F00008602068006840F400502168086000BF4C
:10290000012084F8510000BF002084F8500000BF6F
:102910000320BFE7206880683040B04201D1012029
:1029200000E000200028C4D10020B3E77047000079
:10293000F8B5FEF767F80B2225480168254801F035
:1029400015FF0646002E35D123A000F0D3FD284DFB
:102950002CE04FF4805227492846FFF791FD0446AA
:10296000D4B16B46224623491A4802F07DF9064647
:102970003EB1184801F083FB1FA000F0BBFD022010
:10298000F8BD0098A0420FD020A000F0B3FD114880
:1029900001F075FB0320F3E70E4801F070FB20A067
:1029A00000F0A8FD0420EBE705F58055214885429D
:1029B000CFD304E020A000F09DFD0520E0E722A099
:1029C00000F098FD034801F05AFB0020D8E7000012
:1029D0003400002060130020B1A3B4E6B3CCD0F2E1
:1029E000D6D02CC7EBCEF0B5F4B5E70D0A00000049
:1029F000000004088C150020577269746546696CE4
:102A000065B3F6B4ED320D0A000000005772697428
:102A10006546696C65B3F6B4ED330D0A000000003D
:102A2000577269746546696C65B3F6B4ED340D0A86
:102A300000000000FFFF0C08B4F2BFAACEC4BCFE29
:102A4000B3F6B4ED0D0A0000B1A3B4E6CEC4BCFEEB
:102A5000B3C9B9A60D0A000010B502F093FC00F04E
:102A6000C5FCFFF7CBFDFDF769FE00F01BFA4FF048
:102A7000E020006920F001004FF0E021086110BD66
:102A800010B50948FEF7CDFF0848006820F0100097
:102A90000649086005481430006820F400500349D6
:102AA0001431086010BD000064000020303802407E
:102AB0002DE9F04192B00546884616461F4600248F
:102AC00000BF002000902648006840F08050244954
:102AD00008600846006800F08050009000BF00BF0A
:102AE00000BF002000901F48006840F440401D498E
:102AF00008600846006800F44040009000BF00BF36
:102B000001200690079002200C9041050D91CDF810
:102B100038800F951096119706A8FEF781FC0446A1
:102B20000CB100BFFEE7FEF72FFA04460CB100BF60
:102B3000FEE70F20019002200290002003904FF446
:102B4000A05004904FF480500590052101A8FEF795
:102B50006DFA04460CB100BFFEE712B0BDE8F0818B
:102B6000403802400070004010B504480068401C26
:102B700002490860FFF75CFB10BD00000400002064
:102B800070B503461C480068B0FBF3F1481EB0F175
:102B9000807F01D301201BE0481E4FF0E0225061EE
:102BA00050170F22002807DA1407260E134C00F0E6
:102BB0000F052D1F665503E01407250E104C2554F4
:102BC00000BF00204FF0E02290610720106100203C
:102BD00008B100BFFEE7084800680A49B0FBF1F001
:102BE000094908604FF0E020006940F001004FF013
:102BF000E021086170BD00000800002018ED00E031
:102C000000E400E040420F0000000020144800688B
:102C100040F47000124908601248006840F001005A
:102C20001049086000200F49083108600D4800680D
:102C30000D4908400B4908600C48091D0860081F31
:102C4000006820F48020091F0860002005490C312D
:102C500008604FF00060024980390860704700004A
:102C600088ED00E000380240FFFFF6FE103000243F
:102C700010B5FFF7E2FB4FF47A70FFF781FF10BD4C
:102C80002DE9F041044600252068056925F44055EA
:102C9000E0680543206805612068C56849F20C605A
:102CA00085432169A068084361690843E1690843D5
:102CB00005432068C5602068456925F44075A06912
:102CC000054320684561E069B0F5004F72D1734952
:102CD0002068884203D072492068884234D1FEF7C8
:102CE0002FFB00EBC00101EB001061684900B0FB55
:102CF000F1F06421B0FBF1F6FEF722FB00EBC0011E
:102D000001EB001061684900B0FBF1F7FEF718FB1A
:102D100000EBC00101EB001061684900B0FBF1F06D
:102D20006421B0FBF1F000EBC00101EB0010A7EB58
:102D30008000322101EB00106421B0FBF1F066F35A
:102D40001F1021688860A6E0FEF7E4FA00EBC001DE
:102D500001EB001061684900B0FBF1F06421B0FBA9
:102D6000F1F6FEF7D7FA00EBC00101EB0010616845
:102D70004900B0FBF1F7FEF7CDFA00EBC00101EB23
:102D8000001061684900B0FBF1F06421B0FBF1F084
:102D900000EBC00101EB0010A7EB8000322101EB3A
:102DA00000106421B0FBF1F066F31F102168886009
:102DB00071E0FFE739492068884203D0384920682C
:102DC000884234D1FEF7BCFA00EBC00101EB0010E1
:102DD00061688900B0FBF1F06421B0FBF1F6FEF709
:102DE000AFFA00EBC00101EB001061688900B0FB95
:102DF000F1F7FEF7A5FA00EBC00101EB00106168E6
:102E00008900B0FBF1F06421B0FBF1F000EBC001F0
:102E100001EB0010A7EB8000322101EB00106421D0
:102E2000B0FBF1F066F31F102168886033E0FEF715
:102E300071FA00EBC00101EB001061688900B0FB82
:102E4000F1F06421B0FBF1F6FEF764FA00EBC0018B
:102E500001EB001061688900B0FBF1F7FEF75AFA48
:102E600000EBC00101EB001061688900B0FBF1F0DC
:102E70006421B0FBF1F000EBC00101EB0010A7EB07
:102E80008000322101EB00106421B0FBF1F066F309
:102E90001F1021688860BDE8F0810000001001402B
:102EA000001401400D480068C06820F400500B4930
:102EB0000968C8600A48006820F480100849086062
:102EC00007481038006820F00800054910390860EC
:102ED0000846006820F0040008607047F0100020E9
:102EE0004038024070B505462C68214608A000F025
:102EF00001FB0C482040B0F1005F04D00A4820409C
:102F0000B0F1805F01D1002070BD0120FCE700001E
:102F1000B5D8D6B7BCECB2E23A2030782530385874
:102F2000200D0A000000FE2F0000FE1FF8B5FF2054
:102F3000009000240BE0FFF7FBFC00B909E0022C35
:102F400004D11BA000F0D6FA0120F8BD641C032CAC
:102F5000F1D300BF002413E02020009001236A4633
:102F600000210220FDF7F4FBFDF7D2F900B909E0DA
:102F7000022C04D112A000F0BDFA0220E5E7641C87
:102F8000032CE9D300BF4FF0404006683246011DD4
:102F90000E4800F037FA054625B10DA000F0AAFA58
:102FA0000320D2E70EA000F0A5FA0020CDE7000034
:102FB000B1A3B4E6CEC4BCFECAA7B0DC0D0A0000C3
:102FC000B2C1B3FDCAA7B0DC0D0A000000000408BE
:102FD000D0B4B3CCD0F2B3F6B4ED0D0A00000000CB
:102FE000B8FCD0C2B3CCD0F2B3C9B9A60D0A000068
:102FF00000BFFEE710B504A000F07CFA0FA113A0FB
:1030000000F078FA10BD00000D0A3D203D203D2063
:103010003D203D203D203D203D203D203D203D20C8
:103020003D203D203D203D203D203D203D203D20B8
:103030003D203D203D203D203D0D0A0056303031E1
:103040002E3030312E3138303533310046747542F0
:103050006F6F7456657273696F6E3A25730D0A004F
:1030600010B50446240300F057F900F0EFF80020F3
:103070000F4908602020FFF79BFB0E4800884EF6A2
:103080001871884202D1200EFFF792FBC4F307406B
:10309000FFF78EFBC4F30720FFF78AFBE0B2FFF7D0
:1030A00087FB01200249086000F0D0F810BD000045
:1030B000900242422600002010B586B000BF0020DA
:1030C00000901E48006840F010001C490860084647
:1030D000006800F01000009000BF00BF10200190B9
:1030E0000120029003900220049001A91448FDF7EA
:1030F000A1FD012013490860FFF72EFB0020FFF718
:1031000067FB00F057F810490880084600884EF623
:103110001871884210D1032000F070F8044604F0C2
:10312000010048B9002007490860B720FFF740FBBD
:1031300001200649C1F8900206B010BD30380240A7
:10314000001002409002424226000020000042424D
:103150002DE9F04106460C46174600201349086049
:103160000320FFF725FB124800884EF618718842AD
:1031700002D1200EFFF71CFBC4F30740FFF718FB3A
:10318000C4F30720FFF714FBE0B2FFF711FB0025A3
:1031900005E0FF20FFF70CFB7055681C85B2BD42AF
:1031A000F7DB012001490860BDE8F081900242424E
:1031B0002600002010B5002400200E490860902051
:1031C000FFF7F6FA0020FFF7F3FA0020FFF7F0FA16
:1031D0000020FFF7EDFAFF20FFF7EAFA44EA0024A7
:1031E000FF20FFF7E5FA044301200349C1F89002EC
:1031F000204610BD900242420000424270B5044693
:1032000000250026012C04D0022C04D0032C06D16A
:1032100003E0052605E0352603E0152601E0052636
:1032200000BF00BF0020074908603046FFF7C0FA22
:10323000FF20FFF7BDFA054601200349C1F89002BF
:10324000284670BD900242420000424210B500BFC5
:103250000120FFF7D3FF00F001000028F8D110BDD6
:103260002DE9F05F81460F461646DFF8A8B04FEA19
:103270001738C7F30B0ACAF58054A64200DC34465F
:1032800044E04FEA08314FF480525846FFF760FFA0
:10329000002508E00AEB05001BF80000FF2800D01D
:1032A00003E0681C85B2A542F4DB00BFA54216DA34
:1032B0004046FFF7D5FE002507E019F8050005EBAD
:1032C0000A010BF80100681C85B2A542F5DB4FEA44
:1032D00008314FF48052584600F02EF804E02246A0
:1032E0003946484600F028F8A64200D10FE008F120
:1032F00001084FF0000AA1442744301B86B2B6F5FE
:10330000805F02DD4FF4805400E03446B9E700BF2F
:10331000BDE8F09FBC00002010B500200449086003
:103320000620FFF745FA01200249C1F8900210BDBE
:1033300090024242000042422DE9F04107460E460B
:103340001446F0B2C0F58075AC4200DC254612E0B0
:103350002A463146384600F013F8AC4200D10BE063
:103360002F442E44601B84B2B4F5807F02DD4FF4FD
:10337000807500E02546EBE700BFBDE8F081000066
:103380002DE9F04106460C461746FFF7C5FF002021
:10339000144908600220FFF70BFA134800884EF624
:1033A0001871884202D1200EFFF702FAC4F30740D9
:1033B000FFF7FEF9C4F30720FFF7FAF9E0B2FFF7D1
:1033C000F7F9002504E0705DFFF7F2F9681C85B29B
:1033D000BD42F8DB012003490860FFF737FFBDE875
:1033E000F0810000900242422600002010B50448FF
:1033F000006820F0100002490860FFF741FB10BD93
:10340000303802402DE9F04707460D4690463748D0
:10341000874202D33648874202D90020BDE8F087B0
:1034200007EB08003249884203D90846C01B00F167
:103430000108464606F0030010B106F00300361AF4
:10344000002419E0295D601C285C01EB0021A01C10
:10345000285C01EB0041E01C285C01EB0069391994
:103460004A4600230220FDF783FB8246BAF1000F93
:1034700001D00120D2E7241DB442E3D3A8EB060615
:1034800036B1012E05D0022E07D0032E1BD10EE03F
:103490001CE0285D60F07F4918E0295D601C285C15
:1034A00001EB00204FF6FF7140EA01090EE0295DB3
:1034B000601C285C01EB0021A01C285C01EB004093
:1034C00040F0FF0902E04FF0FF3900BF00BF5EB1DE
:1034D00039194A4600230220FDF74AFB8246BAF119
:1034E000000F01D0012099E7002097E700000408B1
:1034F000FFFF0C080FB4054B10B503A9044A02984E
:1035000000F018F810BC5DF814FB0000F151000841
:103510004000002002E008C8121F08C1002AFAD1AA
:1035200070477047002001E001C1121F002AFBD143
:10353000704700002DE9FF4F8DB00F46054600266D
:1035400006E025280BD0DDE90F1290476D1C761C94
:1035500028780028F5D111B03046BDE8F08F00245E
:10356000A246A1460122EC4900E0044315F8013FC0
:10357000203B02FA03F00842F7D128782A2810D01D
:103580006FF02F022878A0F13001092914D80AEB36
:103590008A0102EB410144F0020400EB010A6D1CB8
:1035A000F0E701CF5FEA000A03D544F40054CAF102
:1035B000000A44F002046D1C28782E2817D115F853
:1035C000010F44F004042A280ED06FF02F0228784F
:1035D000A0F1300109290AD809EB890102EB410168
:1035E00000EB01096D1CF2E757F8049B6D1C28786D
:1035F0006C280FD006DC4C2817D068280DD06A281C
:1036000014D104E0742810D07A280FD10DE044F4CE
:1036100000140AE044F4801401E044F44014697892
:10362000814202D104F580146D1C6D1C2A786E2A2B
:103630001FD00CDC632A31D004DC002A8BD0582A3E
:1036400011D1A3E0642A68D0692A0CD165E0732AFD
:103650002ED004DC6F2A73D0702A04D19BE0752A27
:103660006FD0782A6ED01046DDE90F129047761C95
:1036700050E1C4F30250022806D0032809D00428E0
:1036800001CF09D0066045E101CFF117C0E9006123
:1036900040E101CF06803DE106703BE117F8040BE5
:1036A0008DF8000000208DF80100EB46012003E0BA
:1036B00057F804BB4FF0FF3061074FF0000102D410
:1036C0000DE008F10101884649450FDA8045F8DB35
:1036D0001BF808100029F4D108E008F10101884620
:1036E0008142FADB1BF808100029F6D1DDE90F232F
:1036F000AAEB08008146214600F036F9304400EB81
:10370000080604E0DDE90F121BF8010B9047B8F141
:103710000108F7D221464846F7E00A21C4F30253D4
:103720004FF0000B0891022B04D001CFC117032BDF
:1037300009D00AE0FF1D27F00707F7E8020108E0BB
:1037400032E01FE020E000B2C117042B01D140B2EB
:10375000C117031E71F1000307DA4FF0000CD0EB24
:103760000C006CEB01012D2302E0230504D52B2373
:103770008DF82430012303E0E30701D02023F7E78D
:10378000984658E00A2110E010210EE010204FF07A
:10379000000B08900CE010214FF0000B44F00404E3
:1037A0004FF00809089103E008214FF0000B089141
:1037B000C4F30253022B04D001CF0021032B06D007
:1037C00006E0FF1D27F00707F7E8020103E080B2DB
:1037D000042B00D1C0B24FF0000823072BD5702A6C
:1037E00007D0DDF820C08CF0100C5CEA0B0C05D083
:1037F0000EE040238DF82430012308E050EA010355
:1038000006D030238DF824308DF8252002239846E9
:10381000DDF820C08CF0080C5CEA0B0C0BD150EAF0
:10382000010301D1630706D530238DF824304FF012
:103830000108A9F10109582A04D038A20B9208AA5C
:103840000A920BE03AA2F9E75B46089AFCF7CAFC39
:103850000B9B9B5C0A9A521E0A92137050EA01025B
:10386000F2D10A98ADEB000000F1200B600702D501
:1038700024F4803401E04FF00109D94502DDA9EBC1
:103880000B0000E0002000EB0B0141440890AAEB84
:10389000010AE00306D4DDE90F232146504600F07B
:1038A00063F806444FF0000908E009A911F809007F
:1038B000DDE90F12904709F10109761CC145F4DBDF
:1038C000E0030CD5DDE90F232146504600F04CF80B
:1038D000064404E0DDE90F1230209047761C089979
:1038E000481E08900029F5DC08E00A980A9900783B
:1038F000491C0A91DDE90F129047761CBBF10001CB
:10390000ABF1010BF1DC21465046DDE90F2300F05D
:1039100019F806446D1C1BE60928010030313233CA
:1039200034353637383961626364656600000000FB
:1039300030313233343536373839414243444546E5
:10394000000000002DE9F041044600251E46174600
:10395000880404D405E039462020B0476D1C641E5D
:10396000F9D52846BDE8F0812DE9F041044600254F
:103970001E469046C80301D5302700E02027880462
:1039800004D505E041463846B0476D1C641EF9D5A4
:103990002846BDE8F081000070B504460D460020C1
:1039A000E070401EE0622946204601F040FD08B16B
:1039B000042070BD04F22E2001F0DDFC4AF65521F2
:1039C000884201D00320F4E704F1660001F0C7FC4F
:1039D00020F07F400849884201D10020E9E704F146
:1039E000820001F0BCFC20F07F400349884201D1F5
:1039F0000020DEE70220DCE746415400024600E0FA
:103A0000521C107810B110788842F9D110787047A4
:103A1000F0B503460D461E68986A021D680A77894C
:103A2000B0FBF7F400BF02CA09B90020F0BD8C4218
:103A300000D202E0641A121DF5E700BF10682044AE
:103A4000F4E70246891E5069801E884201D8002092
:103A500070475389906A01FB0300F9E72DE9F047AD
:103A600082468946DAF80040B9F1000F06D1E768CE
:103A700017B16069B84215D8012713E0494650468E
:103A800001F0C4FB0646022E02D20120BDE8F087F9
:103A9000701C08B93046F9E76069B04201D9304678
:103AA000F4E74F463D4600BF6D1C6069A84204D84C
:103AB0000225BD4201D90020E8E72946504601F021
:103AC000A5FB064606B909E0012E01D0701C08B915
:103AD0003046DBE7BD42E7D10020D7E700BF00BF9B
:103AE0004FF0FF322946204601F0BBFC8046B8F17A
:103AF000000F08D1B9F1000F05D02A4649462046EB
:103B000001F0AFFC8046B8F1000F0DD1E560D4E9BB
:103B10000410801E814202D22069401E206120795B
:103B200040F00100207107E0B8F1010F02D14FF021
:103B3000FF3000E0012005462846A7E72DE9F35FA6
:103B40008946D9F800800098066A0B222021304669
:103B500001F064FC00200546834607464FF0080A42
:103B600000BF38467F1C18F80040202C03DD2F2CA6
:103B700001D05C2C0AD100E07F1C18F807002F2828
:103B8000FAD018F807005C28F6D034E02E2C01D0CB
:103B9000D3450ED3BAF1080F01D12E2C02D0062046
:103BA000BDE8FC9F4FF0080B4FF00B0AA806050E6E
:103BB000D7E7802C03DB45F003050620F0E721461C
:103BC00021A0FFF71BFF08B10620E9E7412C04DB29
:103BD0005A2C02DC45F0020508E0612C06DB7A2C49
:103BE00004DC45F00105A4F12000C4B258460BF1F5
:103BF000010B3454B5E700BF08EB0700C9F800001B
:103C0000202C01DC042000E000200446BBF1000F62
:103C100001D10620C4E73078E52801D105203070B5
:103C2000BAF1080F01D1A806050E05F0030001281E
:103C300001D144F0100405F00C00042801D144F037
:103C40000804F4720020ABE7222A2B2C3A3B3C3DBF
:103C50003E3F5B5D7C7F00002DE9F04104460E464F
:103C6000D4F800800021204600F038F90546EDB96F
:103C7000002700BF4046A16901F0D9FB054605B108
:103C800013E0E0690078E52802D0E069007820B907
:103C9000781C0746B04201D107E0002701212046E9
:103CA00000F03FF80546002DE4D000BF042D00D100
:103CB00007252846BDE8F0812DE9F0410446276834
:103CC0000021204600F00AF9054615B12846BDE856
:103CD000F08100BF3846A16901F0A9FB054605B196
:103CE0001CE0E06906780EB9042517E0E069C07AA7
:103CF00000F03F00A071E069C07A00F0080030B920
:103D00000B22D4E9070101F06AFB00B906E00021AB
:103D1000204600F006F80546002DDBD000BF2846FF
:103D2000D5E72DE9F047044689462568206900F16A
:103D30002007A06910B1B7F5001F02D30420BDE829
:103D4000F087C7F30800002868D1A069401CA06173
:103D5000606938B92889B0EB571F5FD80020A0618F
:103D60000420ECE76889401E00EA5720002855D15E
:103D70002046616901F04AFA0646012E01D8022068
:103D8000DDE7701C08B90120D9E76869B0423FD867
:103D9000B9F1000F03D10020A0610420CFE7204635
:103DA0006169FFF75BFE06460EB90720C7E7012EE3
:103DB00001D10220C3E7701C08B90120BFE72846E3
:103DC00001F0A2FC08B10120B9E74FF40072002114
:103DD00005F1300001F022FB4FF000083146284683
:103DE000FFF72FFEE8620CE00120E870284601F0A2
:103DF0008BFC08B10120A2E708F10108E86A401C29
:103E0000E86268894045EFD8E86AA0EB0800E862FC
:103E1000666131462846FFF714FEA0612761C7F3AB
:103E2000080105F130000844E061002087E72DE932
:103E3000F047044688460425D4F8009027E0484619
:103E4000A16901F0F4FA054605B123E0E0690678BE
:103E50000EB904251EE0E069C07A00F03F07A771A3
:103E6000E52E0DD02E2E0BD00F2F09D027F02000DD
:103E7000082801D1012000E00020404500D109E0E0
:103E800000212046FFF74DFF054605B102E0A0697D
:103E90000028D4D100BF0DB10020A0612846BDE8A4
:103EA000F08770B50446266801212046FFF7D4FE4E
:103EB00005468DB93046A16901F0B9FA05465DB9EC
:103EC00020220021E06901F0A9FA0B22D4E90701C0
:103ED00001F097FA0120F070284670BD2DE9F041FD
:103EE00004460D462668B5F5001F02D205F01F00F6
:103EF00010B10220BDE8F0812561A7681FB93078B4
:103F0000032800DB776A47B93089B0EB551F01D829
:103F10000220EFE7706AA0611CE070894FEA402838
:103F200011E03946204601F071F90746781C08B9BE
:103F30000120DFE7022F02D37069B84201D80220C6
:103F4000D8E7A5EB08054545EBD239463046FFF7E3
:103F500078FDA0616761A06908B90220CAE7A0697D
:103F600000EB5520A061C5F3080106F130000844BC
:103F7000E0610020BEE770B50446002514B9FFF7E4
:103F80009BF801E0012500BF00BF0DB1012070BD0D
:103F90000020FCE710B50346D3B931B101290FD099
:103FA000022904D0032910D106E000200FE04FF4CD
:103FB0000074148000200AE008241480002006E029
:103FC0004FF480541460002001E0042000BF00E0A2
:103FD000012010BD2DE9F04107460D4616461C464E
:103FE0004FF0000814B90420BDE8F08187B90BE058
:103FF00006F5704041024FF400722846FFF7A8F81A
:10400000761C05F50075641E002CF1D1A04602E077
:104010004FF0010800BF00BFB8F1000F01D1002030
:10402000E2E70120E0E70146002070472DE9F0417A
:1040300007460D4616461C464FF0000814B90420EA
:10404000BDE8F08187B90BE006F5704041024FF4FE
:1040500000722846FFF704F9761C05F50075641E0A
:10406000002CF1D1A04602E04FF0010800BF00BFD4
:10407000B8F1000F01D10020E2E70120E0E738B5F8
:104080000546284600F0A0FD04464CB9694628467E
:1040900001F0E2FB04460CB900202860204638BD40
:1040A0002046FCE72DE9F74F86B08946002205A996
:1040B00006A800F0D1FE8246BAF1000F6CD1059936
:1040C000089801600598D0E90410801E814204D848
:1040D00005980069C9F800005EE0002405980078A2
:1040E00001281BD102250598019000BF294601A88F
:1040F00001F08CF80646701C10B94FF0010A0CE074
:10410000012E02D14FF0020A07E006B9641C681CB8
:104110000546059949698842E8D333E00598456921
:104120000598D0F820B00027B84600BF7FB959469F
:104130000BF1010B059801F07AF98246BAF1000FF4
:1041400000D01EE0059800F130084FF40077059884
:104150000078022808D1404601F00DF900B9641C2E
:1041600008F10208BF1E09E0404601F0F8F820F00F
:10417000704000B9641C08F104083F1F681E051E4A
:10418000D4D100BFC9F800400598046105980079B2
:1041900040F0010005990871504609B0BDE8F08F64
:1041A0002DE9F74F90B016461198012803DD132032
:1041B00013B0BDE8F08F10A801F09AF80F900F9897
:1041C000002801DA0B20F3E7F9490F9851F820B0E5
:1041D000BBF1000F01D10C20EAE700208BF80000B2
:1041E0000F98C0B20C9000200B900C98FFF7C3FE04
:1041F0000190019800F0010008B10320D8E7019870
:1042000000F0040008B10A20D2E700BF04AA01218F
:104210000C98FFF7BFFE10B90498802801D2012046
:10422000C6E7119808B1002000E03F2082460498BC
:10423000A0EB0A000490701E304000B100269EB929
:104240004FF4FA610498B0FBF1F00A904FF00008C7
:1042500001E008F10108D74830F818100A988142A7
:10426000F7D8D54830F81860B6F5007F00D3760A45
:1042700006B90126802E00D980260498B0FBF6F7F7
:10428000012540F6F670874200D302254FF6F670FE
:10429000874200D30325032D0BD1082000EB8700B4
:1042A00000F2FF104FEA50292020039000200290D6
:1042B00012E0012D05D107EB4700401C4008C01C4F
:1042C00001E07800001D814609F2FF104FEA5029F5
:1042D00001200390202002900398504407900798F3
:1042E0004844069002990698084405900598304481
:1042F000A0EB0A000499884201D90E2058E709AAC8
:1043000003210C98FFF746FE28B9099818B10998BF
:10431000B0F5004F01D9012009900999059808448A
:10432000401E491E8843099009990598081A09906A
:10433000032D08D109990398084403900999079817
:104340000844079001E009988144DDE90301081A57
:10435000A0EB09010298081AB0FBF6F7022D03D171
:1043600040F6F670874205D3032D05D14FF6F6705F
:10437000874201D20E201BE7032D02D10C200D90A5
:1043800010E0012D06D10498B0F5803F02D2012043
:104390000D9007E00498B0F5803F01D2042000E0C2
:1043A00006200D9000BF119810B1F0200E903CE057
:1043B0004FF4007200210BF1300001F02FF80BF5E3
:1043C000F77401206070A0700020E0700D982071DB
:1043D000FE206071049850443F21B0FBF1F0FF21B2
:1043E000B0FBF1F009903F21099841EA9000A071DB
:1043F0000998E07104F1080001F02CF904F10C00B7
:10440000049901F027F94AF655210BF22E2001F00C
:104410002DF9012300220BF130010C98FFF706FE65
:1044200008B10120C4E6F8200E900BF130044FF4DF
:1044300000720021204600F0F1FF0B225FA1204610
:1044400000F0DFFF4FF40078414604F10B0001F06B
:104450000DF96673039881B204F10E0001F006F9BC
:1044600001202074032D01D1002001E04FF40070E1
:1044700080461FFA88F104F1110001F0F7F8049862
:10448000B0F5803F06D2049881B204F1130001F028
:10449000EDF804E004F12000049901F0DBF80E9837
:1044A00060753F2104F1180001F0E0F8FF2104F1EC
:1044B0001A0001F0DBF8514604F11C0001F0CAF8C3
:1044C00000F014FF0990032D25D104F14300099950
:1044D00001F0C0F8494604F1240001F0BBF80221C4
:1044E00004F12C0001F0B6F8012104F1300001F0D4
:1044F000BDF8062104F1320001F0B8F8802084F8FC
:104500004000292084F8420013222FA104F1470023
:1045100000F077FF16E004F12700099901F09AF8FE
:104520001FFA89F104F1160001F0A0F8802084F848
:104530002400292084F82600132228A104F12B004E
:1045400000F05FFF4AF6552104F5FF7001F08EF888
:104550000123524621460C98FFF768FD08B101205F
:1045600026E6032D06D101230AF1060221460C9806
:10457000FFF75CFD079808904FF0000876E04FF4D5
:1045800000720021204600F049FF0E980990032D8B
:1045900030D0012D01D1164801E06FF0FF000999DC
:1045A000084309902046099901F054F835E00000CD
:1045B00038000020BA580008D0580008EBFE904D93
:1045C00053444F53352E30004E4F204E414D452021
:1045D0002020204641543332202020004E4F204ED0
:1045E000414D4520202020464154202020202000FD
:1045F00000FFFF00099860F0FF000990204609992C
:1046000001F028F84FF0FF31201D01F023F86FF082
:10461000704104F1080001F01DF80898411C0246A1
:104620000123089121460C98FFF700FD08B10120F5
:10463000BEE54FF400720021204600F0EFFE01209D
:1046400009900EE00898411C02460123089121467A
:104650000C98FFF7EBFC08B10120A9E50998401C74
:10466000099009984845EDD308F10108B8F1000F09
:1046700085D0032D01D1304600E00298804600BF6E
:104680000898411C02460123089121460C98FFF727
:10469000CDFC08B101208BE5A8F10100B0F10008C4
:1046A000EED1032D26D11849204600F0D3FF17493B
:1046B00004F5F27000F0CEFF791E04F5F47000F0FE
:1046C000C9FF022104F5F67000F0C4FF4AF6552137
:1046D00004F5FF7000F0CAFF01230AF10102214630
:1046E0000C98FFF7A3FC01230AF1070221460C985E
:1046F000FFF79CFC002211460C98FFF74BFC08B119
:10470000012055E5002053E552526141727241612A
:10471000F7B582B016460398019001A800F0E8FDB5
:104720000546002D02DA0B2005B0F0BD0E4850F80A
:1047300025400CB100202070029810B10020029991
:1047400008700949029841F82500029808B1012E25
:1047500001D00020E8E7002202A903A800F07CFBBA
:1047600007463846E0E70000380000202DE9F74111
:104770008DB0044616461CB9092010B0BDE8F08182
:104780000020206006F01F06324603A90EA800F0A4
:1047900063FB0546002D6FD103980490CDF830D00F
:1047A00004A80E9900F0D2FC05462DB90C98C07AE9
:1047B00000F0800000B1062506F01C00002853D050
:1047C00045B1042D03D104A8FFF76BFB054646F065
:1047D00008060AE09DF8160000F0110008B1072550
:1047E00003E006F0040000B10825002D4ED106F0CC
:1047F000080000284AD000F079FD80460B9901F1AD
:104800000E00414600F026FF0B9901F116004146CB
:1048100000F020FF20200B99C8720B99039800F03C
:104820008BFD074600220B99039800F001FF0B99BE
:1048300001F11C00002100F00DFF01200399C87058
:1048400027B30398D0F82C800022394604A800F042
:10485000A4FE0546D5B94146039800F0E8FD05469B
:10486000781E0399C86011E085B99DF8160000F024
:10487000100010B1042509E02AE006F0020028B17A
:104880009DF8160000F0010000B107254DB906F0B3
:10489000080008B146F020060398C06A20620B9811
:1048A0006062ADB90B99039800F046FDA0600B99CA
:1048B00001F11C0000F053FDE0600020A062607474
:1048C0006061E0612674039820600398C088A0802E
:1048D000284652E72DE9FF4F85B0044615469A4613
:1048E000DDF818B00020CAF8000003A9204600F047
:1048F000B3FF0490049810B9607C049018B1049838
:1049000009B0BDE8F08F207C00F0010008B9072055
:10491000F6E76169E068401A01900198854200D984
:10492000019DA8E0A08AC0F30800002874D1039874
:104930004089401E616900EA5129B9F1000F1FD179
:10494000606910B9A06802900CE0A06A28B1204606
:104950006169FFF75DF8029004E02046A16900F06C
:1049600055FC02900298022802D202206074C7E728
:104970000298401C10B901206074C1E70298A06140
:10498000A1690398FFF75DF8064616B90220607426
:10499000B6E74E444FEA5528B8F1000F29D009EB8D
:1049A000080003994989884203D903984089A0EBFC
:1049B000090803994878434632465946FFF70AFBEF
:1049C00010B1012060749BE7207C00F0400068B1CA
:1049D000E069801B404509D2E169891B0BEB41204E
:1049E0004FF4007204F12C0100F00BFD4FEA482750
:1049F00037E0E069B04220D0207C00F0400080B178
:104A0000E26903994878012304F12C01FFF70EFBBA
:104A100018B10120607473E710E0207C20F04000A2
:104A20002074039948780123324604F12C01FFF7E2
:104A3000D1FA10B10120607462E7E661A08AC0F388
:104A40000800C0F50077AF4200D92F46A08AC0F316
:104A5000080204F12C0011183A46584600F0D1FC27
:104A600000BFBB44606938446061DAF80000384434
:104A7000CAF80000ED1B002D7FF454AF00203FE783
:104A80002DE9F14191B0022207A911A800F0E4F943
:104A900006461EB1304612B0BDE8F0810798089076
:104AA000002400E0641C1198005D2028FAD200E088
:104AB000641E24B1601E1199085C2028F8D0002CD7
:104AC0003ED000208DF804000027B84600BF4046C5
:104AD00008F1010811990D5C612D04DB7A2D02DCCF
:104AE000A5F1200085B2802D00DB00255DB12946AF
:104AF0003448FEF783FF30B9FF2D01DD0A2000E0C6
:104B00000B20B84201D80620C5E7FF2D04DD2A128C
:104B100038467F1C01A90A5438467F1C01A90D5450
:104B2000A045D4D304E0202238467F1C01A90A54B2
:104B30000B2FF8D39DF80400E52801D10620AAE741
:104B400000200A90002108A8FFF7C8F90646BEBB5E
:104B5000012108A8FFF76BF9064696B900BF2CB1F2
:104B60000B2201A90F9800F04CFC02E0E5200F9900
:104B7000087001200799C870079800F07DFD06466F
:104B80001EE0042E1CD10026D4B1012108A8FFF795
:104B900063F80646A6B9202200210F9800F03EFCDB
:104BA00000BF08200F99C8720B2201A90F9800F0CE
:104BB00028FC01200799C870079800F05DFD0646A3
:104BC000304668E7AA580008F8B50446694620460A
:104BD00000F042FE0646002E44D1207C00F020006A
:104BE00000283FD0207C00F0400070B1E2690099BD
:104BF0004878012304F12C01FFF718FA08B10120CD
:104C0000F8BD207C20F04000207400F06FFB0746C8
:104C1000216A009800F00BFC06461EBB656AE87A24
:104C200040F02000E8722946A268206800F000FDEC
:104C300005F11C00E16800F00DFD394605F1160094
:104C400000F008FD002105F1120000F00FFD012029
:104C50000099C870009800F00FFD0646207C20F0F7
:104C6000200020743046CBE72DE9FF4F83B0044687
:104C700015469B46049800900020CBF8000001A93F
:104C8000204600F0E9FD0290029810B9607C029085
:104C900018B1029807B0BDE8F08F207C00F0020048
:104CA00008B90720F6E700BF6069284461698842B7
:104CB00002D26069C0F1FF35C3E0A08AC0F30800EA
:104CC00000287DD101984089401E616900EA512A7F
:104CD000BAF1000F26D1606938B9A76897B90021E9
:104CE0002046FEF7BBFE07460CE0A06A28B120462E
:104CF0006169FEF78DFE074604E02046A169FEF7D4
:104D0000ADFE074607B99FE0012F02D10220607473
:104D1000C0E7781C10B901206074BBE7A761A068E8
:104D200000B9A760207C00F0400078B1E2690199E9
:104D30004878012304F12C01FFF778F910B1012024
:104D40006074A7E7207C20F040002074A1690198DE
:104D5000FEF777FE064616B9022060749AE75644BD
:104D60004FEA5529B9F1000F2BD00AEB0900019940
:104D70004989884203D901984089A0EB0A09019921
:104D800048784B4632460099FFF750F910B10120A0
:104D900060747FE7E069801B48450ED2E069801BA4
:104DA000009A02EB40214FF4007204F12C0000F055
:104DB00028FB207C20F0400020744FEA49282BE09B
:104DC00013E0E069B0420FD0E168606988420BD21D
:104DD000019948780123324604F12C01FFF7FAF8D3
:104DE00010B10120607455E7E661A08AC0F30800A5
:104DF000C0F50078A84500D9A846A18AC1F30802E9
:104E000004F12C0150184246009900F0FAFA207C77
:104E100040F04000207400BF00984044009060695A
:104E200040446061E1686069884201D9606900E0DE
:104E3000E068E060DBF800004044CBF80000A5EB40
:104E40000805002D7FF439AF00BF207C40F0200022
:104E5000207400201EE700002DE9F74F8AB00021E2
:104E60000B9801600A9800F043FA0890089800280F
:104E700003DA0B200DB0BDE8F08FB049089851F867
:104E800020400CB90C20F5E70B9804600C9820F03A
:104E900001000C90207878B16078FFF7C4F8814663
:104EA00009F0010040B90C9820B109F0040008B1E4
:104EB0000A20DFE70020DDE70020207008986070FE
:104EC0006078FFF758F8814609F0010008B1032027
:104ED000D0E70C9820B109F0040008B10A20C9E716
:104EE000002739462046FEF757FD0546022D01D022
:104EF0002BDA2AE0002611E004F5F77000EB06102B
:104F000009900998007920B10998083000F027FA33
:104F100000E0002002A941F82600761C042EEBD305
:104F2000002606B1761E00BF02A850F8267027B1F1
:104F300039462046FEF730FD00E003200546022DED
:104F400003DB701C06460428EED3042D01D101209A
:104F500090E7022D01DB0D208CE704F13B0000F00F
:104F60000AFAB0F5007F01D00D2083E704F1460076
:104F700000F001FA8046B8F1000F04D104F15400AA
:104F800000F0EDF98046C4F818804020005DA07064
:104F9000A078012804D0A078022801D00D2069E76C
:104FA000A07808FB00F83D20005D6081608918B1A1
:104FB0006089411E084008B10D205BE704F1410003
:104FC00000F0D9F92081207A00F00F0008B10D20FF
:104FD00050E704F1430000F0CEF98246BAF1000F29
:104FE00004D104F1500000F0BAF9824604F13E0009
:104FF00000F0C1F90190019808B90D203AE7019835
:105000004044218900EB111007900798824501D296
:105010000D202FE70798AAEB00006189B0FBF1FB98
:10502000BBF1000F01D10D2024E7012540F6F670F9
:10503000834500D302254FF6F670834500D3032540
:105040000BF102006061E761019838442062079823
:105050003844A062032D13D104F15A0000F08BF9FB
:1050600008B10D2006E7208908B10D2002E704F100
:105070005C0000F074F9606260698000069014E0E2
:10508000208908B90D20F5E6206A40446062022DAF
:1050900002D16069400007E0207D00F001006169F5
:1050A00001EB410100EB51000690A169069800F266
:1050B000FF10B1EB502F01D20D20DBE64FF0FF3097
:1050C0002061E06080202071032D2CD104F160006C
:1050D00000F051F9012826D1791C204600F0A7F9EB
:1050E00008BB0020207104F22E2000F044F94AF69B
:1050F0005521884217D104F1300000F030F91049F1
:10510000884210D104F5057000F029F90D49884254
:1051100009D104F5067000F022F9206104F507704A
:1051200000F01DF9E060257007480088401C80B23F
:1051300005490880E08000209CE60000380000203F
:1051400052526141727241613C0000202DE9F341ED
:1051500004462646D6F8008002E00198401C0190E3
:10516000019800782F28F8D0019800785C28F4D0B6
:105170000020B06001980078202808D28020216AA1
:10518000C87200212046FEF7A9FE05462CE000BFAC
:1051900001A92046FEF7D2FC054605B123E02046D2
:1051A000FEF78AFD0546206AC77A3DB1042D04D179
:1051B00000BF07F0040000B9052514E007F0040063
:1051C00000B110E0B07900F0100008B905250AE040
:1051D000208AC0F3080208F130001118404600F0A0
:1051E000ABF8B060D4E700BF2846BDE8FC81000002
:1051F00000BF054A126802F04002002AF9D0C2B28C
:10520000014B5A6070470000005000402DE9F04704
:1052100081460C46D9F80050022C02D36869A0429E
:1052200002D84FF001085EE04FF0FF3828780128DF
:1052300004D002282CD0032851D13CE0264606EBAE
:105240005606286A00EB5621284600F0F0F800B117
:1052500048E03046761CC0F3080105F13000475C99
:10526000286A00EB5621284600F0E1F800B139E049
:10527000C6F3080105F13000405C47EA002704F05E
:10528000010008B1380901E0C7F30B00804629E0AE
:10529000286A00EB1421284600F0C9F800B121E08B
:1052A00040F2FF1101EA440205F13001501800F00C
:1052B00062F8804616E0286A00EBD411284600F018
:1052C000B6F800B10EE040F2FF1101EA840205F1E8
:1052D0003001501800F043F820F0704802E04FF021
:1052E000010800BF00BF4046BDE8F08700207047BE
:1052F00070B502464FF0FF301568DDB1116800E06F
:10530000491C0D78212D02D30D783A2DF8D10D7856
:105310003A2D0ED1146814F8015BA5F130030A2B65
:1053200006D28C4204D11BB918464D1C2946156083
:1053300070BD002000BFFBE770B505460C4604F1C8
:105340001A0000F018F806462878032805D104F161
:10535000140000F010F846EA0046304670BD0146E1
:10536000C8788A7842EA00204A7842EA00200A781F
:1053700042EA00207047014648780A7842EA002055
:10538000704700000348006820F0020001490860EF
:105390007047000030380240FBF76EFD0823022200
:1053A00019214FF4B470FDF783FBFDF761FC00F0A9
:1053B0004DFAFCF70BFFFDF74DF9FDF77DFEFBF70E
:1053C00067F9FDF717FEFBF7F5FA4FF4FA70FAF7F5
:1053D0006FFFFCF71DFE01E0FCF72EFEFCE7F0B5C9
:1053E00003461D460C46002000BF15F8017B14F84B
:1053F00001CBA7EB0C00561E321E01D00028F4D0C2
:10540000F0BD30B503460C463AB100BF14F8015B5D
:1054100003F8015B551E2A1EF8D130BD10B50346B6
:1054200000BF03F8011B541E221EFAD110BD70B537
:1054300004460D460026E06AA84210D0204600F03F
:1054400063F906465EB9607801232A4604F130010B
:10545000FEF7C0FD10B14FF0FF350126E562304682
:1054600070BD2DE9F04704460D4616464FF002097F
:10547000022D74D36069A84271D92078012804D024
:10548000022849D003280DD15EE02F4607EB5707CD
:10549000206A00EB57212046FFF7C9FF8146B9F18A
:1054A000000F00D075E038467F1CC0F3080104F1FE
:1054B000300001EB000805F0010028B1F1B298F8C6
:1054C000000061F31F1000E0304688F80000012062
:1054D000E070206A00EB57212046FFF7A8FF8146C5
:1054E000B9F1000F00D054E0C7F3080104F1300017
:1054F00001EB000805F0010010B1C6F3071006E04B
:1055000098F8000000F0F000C6F30321084388F883
:1055100000000120E0703CE0206A00EB15212046ED
:10552000FFF785FF8146B9F1000F00D031E0B1B23D
:1055300040F2FF1202EA450304F13002981800F02D
:1055400095F80120E07024E0206A00EBD511204698
:10555000FFF76DFF8146B9F1000F01D019E019E0A6
:1055600040F2FF1101EA850204F130015018FFF703
:10557000F6FE66F31B00064640F2FF1101EA8502C3
:1055800004F130015018314600F064F80120E07059
:1055900000BF00BF4846BDE8F0872DE9F0478146CF
:1055A0000E4617464FF00008D9F80040022E02D3ED
:1055B0006069B04202D80220BDE8F08767B100BF41
:1055C0004FF0FF3239462046FFF74BFF8046B8F1D7
:1055D000000F01D04046EFE700BF31464846FFF7D5
:1055E00015FE054605B920E0012D01D10220E3E7B3
:1055F000681C08B90120DFE7002231462046FFF78A
:1056000030FF8046B8F1000F01D04046D4E7206952
:10561000401C30B12069401C2061207940F001001D
:1056200020712E466069B042D7D800BF0020C3E782
:1056300070B506460C461546A9B204F11A0000F0F2
:1056400015F83078032804D1290C04F1140000F077
:105650000DF870BD00F8011B090A00F8011B090ACA
:1056600000F8011B090A00F8011B704700F8011B34
:10567000091200F8011B704770B50446204600F07F
:1056800043F80546002D38D1207803282ED1207903
:1056900001282BD14202002104F13000FFF7BEFEA9
:1056A0004AF6552104F22E20FFF7E0FF144904F1D9
:1056B0003000FFF7CFFF134904F50570FFF7CAFF6D
:1056C00004F506702169FFF7C5FF04F50770E1686E
:1056D000FFF7C0FFE069401CE0626078012304F13D
:1056E0003001E26AFEF7A2FC0020207160780022FF
:1056F0001146FEF74FFC00B10125284670BD0000A1
:1057000052526141727241612DE9F0410446002715
:10571000E078F8B1E56A607801232A4604F13001A7
:10572000FEF784FC08B1012714E00020E070206A35
:10573000281AA16988420DD2A67809E0A06905441B
:10574000607801232A4604F13001FEF76FFC761ED3
:10575000022EF3D23846BDE8F081000008B500BF44
:10576000002000901348006840F480101149086040
:105770000846006800F48010009000BF00BF0E488B
:105780000E4908604FF4E130486000210B48816009
:10579000C16001610C21416100218161C161FCF79F
:1057A0009AFB06480068C06820F040000349096879
:1057B000C86008BD4038024000500040F010002092
:1057C00000B587B000BF002001901D48006840F080
:1057D00008001B4908600846006800F008000190B6
:1057E00000BF00BF00BF002001900846006840F0E5
:1057F000040008600846006800F00400019000BF43
:1058000000BF042002900220039001200490032096
:1058100005900820069002A90A48FBF70BFA4FF4FE
:1058200080500290022003900120049003200590F4
:105830000820069002A90448FBF7FCF907B000BD58
:1058400030380240000C02400008024010B5FFF75B
:10585000B7FFFFF783FF10BD2DE9F04105460F4666
:105860002C4685B1206870B12068007858B1206856
:10587000C088A188884206D121684878FEF7D3FB0A
:1058800000F0010018B100203860092602E020680D
:10589000386000263046BDE8F081000000000102BB
:1058A00003040102030406070809222A2B2C2E3ABE
:1058B0003B3C3D3E3F5B5D7C7F00000400020001FD
:1058C00080004000200010000800040002000000DA
:1058D0000080004000200010000800400020001060
:1058E00000080004000200006D2E62696E000000D6
:1058F0001059000800000020440000001435000882
:1059000054590008440000204C29000024350008A8
:1059100000000000000000000024F400000000006F
:10592000000000000102030406070809000000004F
:1059300000000000000018EF000000000000000060
:1059400000000000E858000800000000000000000F
:045950000000000053
:04000005080001AD41
:00000001FF
